{
  "_format": "hh-sol-artifact-1",
  "contractName": "RecordFactory",
  "sourceName": "contracts/healthrecord.sol",
  "abi": [
    {
      "inputs": [],
      "stateMutability": "nonpayable",
      "type": "constructor"
    },
    {
      "inputs": [
        {
          "internalType": "string",
          "name": "name",
          "type": "string"
        },
        {
          "internalType": "string",
          "name": "age",
          "type": "string"
        },
        {
          "internalType": "string",
          "name": "gender",
          "type": "string"
        },
        {
          "internalType": "string",
          "name": "height",
          "type": "string"
        },
        {
          "internalType": "string",
          "name": "weight",
          "type": "string"
        },
        {
          "internalType": "address",
          "name": "doctorAddress",
          "type": "address"
        },
        {
          "internalType": "string",
          "name": "prescriptionHash",
          "type": "string"
        },
        {
          "internalType": "string",
          "name": "mriHash",
          "type": "string"
        },
        {
          "internalType": "string",
          "name": "imageHash",
          "type": "string"
        }
      ],
      "name": "createRecord",
      "outputs": [],
      "stateMutability": "nonpayable",
      "type": "function"
    },
    {
      "inputs": [
        {
          "internalType": "uint256",
          "name": "",
          "type": "uint256"
        }
      ],
      "name": "deployedrecords",
      "outputs": [
        {
          "internalType": "address",
          "name": "",
          "type": "address"
        }
      ],
      "stateMutability": "view",
      "type": "function"
    },
    {
      "inputs": [
        {
          "internalType": "address",
          "name": "",
          "type": "address"
        }
      ],
      "name": "docs",
      "outputs": [
        {
          "internalType": "address",
          "name": "doc",
          "type": "address"
        },
        {
          "internalType": "string",
          "name": "imageHash",
          "type": "string"
        },
        {
          "internalType": "string",
          "name": "speciality",
          "type": "string"
        },
        {
          "internalType": "string",
          "name": "description",
          "type": "string"
        }
      ],
      "stateMutability": "view",
      "type": "function"
    },
    {
      "inputs": [
        {
          "internalType": "uint256",
          "name": "",
          "type": "uint256"
        }
      ],
      "name": "doctors",
      "outputs": [
        {
          "internalType": "address",
          "name": "",
          "type": "address"
        }
      ],
      "stateMutability": "view",
      "type": "function"
    },
    {
      "inputs": [],
      "name": "getDeployedRecords",
      "outputs": [
        {
          "internalType": "address[]",
          "name": "",
          "type": "address[]"
        }
      ],
      "stateMutability": "view",
      "type": "function"
    },
    {
      "inputs": [],
      "name": "getDoctors",
      "outputs": [
        {
          "internalType": "address[]",
          "name": "",
          "type": "address[]"
        }
      ],
      "stateMutability": "view",
      "type": "function"
    },
    {
      "inputs": [],
      "name": "manager",
      "outputs": [
        {
          "internalType": "address",
          "name": "",
          "type": "address"
        }
      ],
      "stateMutability": "view",
      "type": "function"
    },
    {
      "inputs": [
        {
          "internalType": "address",
          "name": "",
          "type": "address"
        }
      ],
      "name": "records",
      "outputs": [
        {
          "internalType": "bool",
          "name": "",
          "type": "bool"
        }
      ],
      "stateMutability": "view",
      "type": "function"
    },
    {
      "inputs": [
        {
          "internalType": "address",
          "name": "sender",
          "type": "address"
        },
        {
          "internalType": "string",
          "name": "_imageHash",
          "type": "string"
        },
        {
          "internalType": "string",
          "name": "_speciality",
          "type": "string"
        },
        {
          "internalType": "string",
          "name": "_description",
          "type": "string"
        }
      ],
      "name": "registerDoctor",
      "outputs": [],
      "stateMutability": "nonpayable",
      "type": "function"
    }
  ],
  "bytecode": "0x608060405234801561001057600080fd5b5033600260006101000a81548173ffffffffffffffffffffffffffffffffffffffff021916908373ffffffffffffffffffffffffffffffffffffffff160217905550612ca1806100616000396000f3fe60806040523480156200001157600080fd5b5060043610620000a05760003560e01c806393c095ff116200006f57806393c095ff1462000155578063b13d5d941462000175578063bc664c951462000197578063d552d2dd14620001cd578063eb4d2ec114620001ed57620000a0565b8063469e906714620000a5578063481c6a7514620000db5780634c58729414620000fd5780636efb1b84146200011f575b600080fd5b620000c36004803603810190620000bd919062000b92565b62000226565b604051620000d2919062001131565b60405180910390f35b620000e562000246565b604051620000f4919062000fa2565b60405180910390f35b620001076200026c565b6040516200011691906200110d565b60405180910390f35b6200013d600480360381019062000137919062000e16565b620002fc565b6040516200014c919062000fa2565b60405180910390f35b6200017360048036038101906200016d919062000bbe565b6200033c565b005b6200017f6200055b565b6040516200018e91906200110d565b60405180910390f35b620001b56004803603810190620001af919062000e16565b620005eb565b604051620001c4919062000fa2565b60405180910390f35b620001eb6004803603810190620001e5919062000c75565b6200062b565b005b6200020b600480360381019062000205919062000b92565b62000834565b6040516200021d9493929190620010ab565b60405180910390f35b60016020528060005260406000206000915054906101000a900460ff1681565b600260009054906101000a900473ffffffffffffffffffffffffffffffffffffffff1681565b60606000805480602002602001604051908101604052809291908181526020018280548015620002f257602002820191906000526020600020905b8160009054906101000a900473ffffffffffffffffffffffffffffffffffffffff1673ffffffffffffffffffffffffffffffffffffffff1681526020019060010190808311620002a7575b5050505050905090565b600481815481106200030d57600080fd5b906000526020600020016000915054906101000a900473ffffffffffffffffffffffffffffffffffffffff1681565b600260009054906101000a900473ffffffffffffffffffffffffffffffffffffffff1673ffffffffffffffffffffffffffffffffffffffff163373ffffffffffffffffffffffffffffffffffffffff1614620003cf576040517f08c379a0000000000000000000000000000000000000000000000000000000008152600401620003c6906200114e565b60405180910390fd5b600060405180608001604052808673ffffffffffffffffffffffffffffffffffffffff16815260200185815260200184815260200183815250905080600360008773ffffffffffffffffffffffffffffffffffffffff1673ffffffffffffffffffffffffffffffffffffffff16815260200190815260200160002060008201518160000160006101000a81548173ffffffffffffffffffffffffffffffffffffffff021916908373ffffffffffffffffffffffffffffffffffffffff1602179055506020820151816001019080519060200190620004af92919062000a34565b506040820151816002019080519060200190620004ce92919062000a34565b506060820151816003019080519060200190620004ed92919062000a34565b509050506004859080600181540180825580915050600190039060005260206000200160009091909190916101000a81548173ffffffffffffffffffffffffffffffffffffffff021916908373ffffffffffffffffffffffffffffffffffffffff1602179055505050505050565b60606004805480602002602001604051908101604052809291908181526020018280548015620005e157602002820191906000526020600020905b8160009054906101000a900473ffffffffffffffffffffffffffffffffffffffff1673ffffffffffffffffffffffffffffffffffffffff168152602001906001019080831162000596575b5050505050905090565b60008181548110620005fc57600080fd5b906000526020600020016000915054906101000a900473ffffffffffffffffffffffffffffffffffffffff1681565b600033858b8b8b8b8b88604051620006439062000ac5565b6200065698979695949392919062000fbf565b604051809103906000f08015801562000673573d6000803e3d6000fd5b50905060018060003373ffffffffffffffffffffffffffffffffffffffff1673ffffffffffffffffffffffffffffffffffffffff16815260200190815260200160002060006101000a81548160ff0219169083151502179055506000819080600181540180825580915050600190039060005260206000200160009091909190916101000a81548173ffffffffffffffffffffffffffffffffffffffff021916908373ffffffffffffffffffffffffffffffffffffffff1602179055506000835114620007ac578073ffffffffffffffffffffffffffffffffffffffff166332ddb7cc86856040518363ffffffff1660e01b81526004016200077792919062001077565b600060405180830381600087803b1580156200079257600080fd5b505af1158015620007a7573d6000803e3d6000fd5b505050505b600084511462000828578073ffffffffffffffffffffffffffffffffffffffff166353a1c84786866040518363ffffffff1660e01b8152600401620007f392919062001077565b600060405180830381600087803b1580156200080e57600080fd5b505af115801562000823573d6000803e3d6000fd5b505050505b50505050505050505050565b60036020528060005260406000206000915090508060000160009054906101000a900473ffffffffffffffffffffffffffffffffffffffff16908060010180546200087f90620012bb565b80601f0160208091040260200160405190810160405280929190818152602001828054620008ad90620012bb565b8015620008fe5780601f10620008d257610100808354040283529160200191620008fe565b820191906000526020600020905b815481529060010190602001808311620008e057829003601f168201915b5050505050908060020180546200091590620012bb565b80601f01602080910402602001604051908101604052809291908181526020018280546200094390620012bb565b8015620009945780601f10620009685761010080835404028352916020019162000994565b820191906000526020600020905b8154815290600101906020018083116200097657829003601f168201915b505050505090806003018054620009ab90620012bb565b80601f0160208091040260200160405190810160405280929190818152602001828054620009d990620012bb565b801562000a2a5780601f10620009fe5761010080835404028352916020019162000a2a565b820191906000526020600020905b81548152906001019060200180831162000a0c57829003601f168201915b5050505050905084565b82805462000a4290620012bb565b90600052602060002090601f01602090048101928262000a66576000855562000ab2565b82601f1062000a8157805160ff191683800117855562000ab2565b8280016001018555821562000ab2579182015b8281111562000ab157825182559160200191906001019062000a94565b5b50905062000ac1919062000ad3565b5090565b6118d7806200139583390190565b5b8082111562000aee57600081600090555060010162000ad4565b5090565b600062000b0962000b0384620011a4565b62001170565b90508281526020810184848401111562000b2257600080fd5b62000b2f84828562001276565b509392505050565b60008135905062000b488162001360565b92915050565b600082601f83011262000b6057600080fd5b813562000b7284826020860162000af2565b91505092915050565b60008135905062000b8c816200137a565b92915050565b60006020828403121562000ba557600080fd5b600062000bb58482850162000b37565b91505092915050565b6000806000806080858703121562000bd557600080fd5b600062000be58782880162000b37565b945050602085013567ffffffffffffffff81111562000c0357600080fd5b62000c118782880162000b4e565b935050604085013567ffffffffffffffff81111562000c2f57600080fd5b62000c3d8782880162000b4e565b925050606085013567ffffffffffffffff81111562000c5b57600080fd5b62000c698782880162000b4e565b91505092959194509250565b60008060008060008060008060006101208a8c03121562000c9557600080fd5b60008a013567ffffffffffffffff81111562000cb057600080fd5b62000cbe8c828d0162000b4e565b99505060208a013567ffffffffffffffff81111562000cdc57600080fd5b62000cea8c828d0162000b4e565b98505060408a013567ffffffffffffffff81111562000d0857600080fd5b62000d168c828d0162000b4e565b97505060608a013567ffffffffffffffff81111562000d3457600080fd5b62000d428c828d0162000b4e565b96505060808a013567ffffffffffffffff81111562000d6057600080fd5b62000d6e8c828d0162000b4e565b95505060a062000d818c828d0162000b37565b94505060c08a013567ffffffffffffffff81111562000d9f57600080fd5b62000dad8c828d0162000b4e565b93505060e08a013567ffffffffffffffff81111562000dcb57600080fd5b62000dd98c828d0162000b4e565b9250506101008a013567ffffffffffffffff81111562000df857600080fd5b62000e068c828d0162000b4e565b9150509295985092959850929598565b60006020828403121562000e2957600080fd5b600062000e398482850162000b7b565b91505092915050565b600062000e50838362000e5c565b60208301905092915050565b62000e67816200122c565b82525050565b62000e78816200122c565b82525050565b600062000e8b82620011e7565b62000e9781856200120a565b935062000ea483620011d7565b8060005b8381101562000edb57815162000ebf888262000e42565b975062000ecc83620011fd565b92505060018101905062000ea8565b5085935050505092915050565b62000ef38162001240565b82525050565b600062000f0682620011f2565b62000f1281856200121b565b935062000f2481856020860162001285565b62000f2f816200134f565b840191505092915050565b600062000f496022836200121b565b91507f4f6e6c79206d616e616765722063616e207265676973746572206120646f637460008301527f6f720000000000000000000000000000000000000000000000000000000000006020830152604082019050919050565b600060208201905062000fb9600083018462000e6d565b92915050565b60006101008201905062000fd7600083018b62000e6d565b62000fe6602083018a62000e6d565b818103604083015262000ffa818962000ef9565b9050818103606083015262001010818862000ef9565b9050818103608083015262001026818762000ef9565b905081810360a08301526200103c818662000ef9565b905081810360c083015262001052818562000ef9565b905081810360e083015262001068818462000ef9565b90509998505050505050505050565b60006040820190506200108e600083018562000e6d565b8181036020830152620010a2818462000ef9565b90509392505050565b6000608082019050620010c2600083018762000e6d565b8181036020830152620010d6818662000ef9565b90508181036040830152620010ec818562000ef9565b9050818103606083015262001102818462000ef9565b905095945050505050565b6000602082019050818103600083015262001129818462000e7e565b905092915050565b600060208201905062001148600083018462000ee8565b92915050565b60006020820190508181036000830152620011698162000f3a565b9050919050565b6000604051905081810181811067ffffffffffffffff821117156200119a576200119962001320565b5b8060405250919050565b600067ffffffffffffffff821115620011c257620011c162001320565b5b601f19601f8301169050602081019050919050565b6000819050602082019050919050565b600081519050919050565b600081519050919050565b6000602082019050919050565b600082825260208201905092915050565b600082825260208201905092915050565b600062001239826200124c565b9050919050565b60008115159050919050565b600073ffffffffffffffffffffffffffffffffffffffff82169050919050565b6000819050919050565b82818337600083830152505050565b60005b83811015620012a557808201518184015260208101905062001288565b83811115620012b5576000848401525b50505050565b60006002820490506001821680620012d457607f821691505b60208210811415620012eb57620012ea620012f1565b5b50919050565b7f4e487b7100000000000000000000000000000000000000000000000000000000600052602260045260246000fd5b7f4e487b7100000000000000000000000000000000000000000000000000000000600052604160045260246000fd5b6000601f19601f8301169050919050565b6200136b816200122c565b81146200137757600080fd5b50565b62001385816200126c565b81146200139157600080fd5b5056fe60806040523480156200001157600080fd5b50604051620018d7380380620018d78339818101604052810190620000379190620002b8565b87600460006101000a81548173ffffffffffffffffffffffffffffffffffffffff021916908373ffffffffffffffffffffffffffffffffffffffff1602179055508560059080519060200190620000909291906200017f565b508460069080519060200190620000a99291906200017f565b508360079080519060200190620000c29291906200017f565b508260089080519060200190620000db9291906200017f565b508160099080519060200190620000f49291906200017f565b5080600390805190602001906200010d9291906200017f565b506002879080600181540180825580915050600190039060005260206000200160009091909190916101000a81548173ffffffffffffffffffffffffffffffffffffffff021916908373ffffffffffffffffffffffffffffffffffffffff160217905550505050505050505062000590565b8280546200018d90620004e2565b90600052602060002090601f016020900481019282620001b15760008555620001fd565b82601f10620001cc57805160ff1916838001178555620001fd565b82800160010185558215620001fd579182015b82811115620001fc578251825591602001919060010190620001df565b5b5090506200020c919062000210565b5090565b5b808211156200022b57600081600090555060010162000211565b5090565b600062000246620002408462000445565b62000411565b9050828152602081018484840111156200025f57600080fd5b6200026c848285620004ac565b509392505050565b600081519050620002858162000576565b92915050565b600082601f8301126200029d57600080fd5b8151620002af8482602086016200022f565b91505092915050565b600080600080600080600080610100898b031215620002d657600080fd5b6000620002e68b828c0162000274565b9850506020620002f98b828c0162000274565b975050604089015167ffffffffffffffff8111156200031757600080fd5b620003258b828c016200028b565b965050606089015167ffffffffffffffff8111156200034357600080fd5b620003518b828c016200028b565b955050608089015167ffffffffffffffff8111156200036f57600080fd5b6200037d8b828c016200028b565b94505060a089015167ffffffffffffffff8111156200039b57600080fd5b620003a98b828c016200028b565b93505060c089015167ffffffffffffffff811115620003c757600080fd5b620003d58b828c016200028b565b92505060e089015167ffffffffffffffff811115620003f357600080fd5b620004018b828c016200028b565b9150509295985092959890939650565b6000604051905081810181811067ffffffffffffffff821117156200043b576200043a62000547565b5b8060405250919050565b600067ffffffffffffffff82111562000463576200046262000547565b5b601f19601f8301169050602081019050919050565b600062000485826200048c565b9050919050565b600073ffffffffffffffffffffffffffffffffffffffff82169050919050565b60005b83811015620004cc578082015181840152602081019050620004af565b83811115620004dc576000848401525b50505050565b60006002820490506001821680620004fb57607f821691505b6020821081141562000512576200051162000518565b5b50919050565b7f4e487b7100000000000000000000000000000000000000000000000000000000600052602260045260246000fd5b7f4e487b7100000000000000000000000000000000000000000000000000000000600052604160045260246000fd5b620005818162000478565b81146200058d57600080fd5b50565b61133780620005a06000396000f3fe608060405234801561001057600080fd5b506004361061009e5760003560e01c8063a45c26fa11610066578063a45c26fa14610159578063b8fbfe411461017a578063cdbbd15914610198578063d06a9761146101b6578063fbbf93a0146101d25761009e565b806332ddb7cc146100a35780634e7f9b19146100bf57806353a1c847146100ef5780636c13139d1461010b5780636f16af1014610129575b600080fd5b6100bd60048036038101906100b89190610d90565b6101f4565b005b6100d960048036038101906100d49190610de4565b6102b4565b6040516100e691906110b0565b60405180910390f35b61010960048036038101906101049190610d90565b6103fe565b005b6101136104be565b6040516101209190610f9c565b60405180910390f35b610143600480360381019061013e9190610de4565b61054c565b604051610150919061108e565b60405180910390f35b610161610696565b6040516101719493929190610fbe565b60405180910390f35b610182610874565b60405161018f91906110d2565b60405180910390f35b6101a0610880565b6040516101ad91906110d2565b60405180910390f35b6101d060048036038101906101cb9190610d67565b61088d565b005b6101da6108f3565b6040516101eb959493929190611018565b60405180910390f35b600160405180604001604052808381526020018473ffffffffffffffffffffffffffffffffffffffff1681525090806001815401808255809150506001900390600052602060002090600202016000909190919091506000820151816000019080519060200190610266929190610bd2565b5060208201518160010160006101000a81548173ffffffffffffffffffffffffffffffffffffffff021916908373ffffffffffffffffffffffffffffffffffffffff16021790555050505050565b6102bc610c58565b600182815481106102f6577f4e487b7100000000000000000000000000000000000000000000000000000000600052603260045260246000fd5b906000526020600020906002020160405180604001604052908160008201805461031f90611232565b80601f016020809104026020016040519081016040528092919081815260200182805461034b90611232565b80156103985780601f1061036d57610100808354040283529160200191610398565b820191906000526020600020905b81548152906001019060200180831161037b57829003601f168201915b505050505081526020016001820160009054906101000a900473ffffffffffffffffffffffffffffffffffffffff1673ffffffffffffffffffffffffffffffffffffffff1673ffffffffffffffffffffffffffffffffffffffff16815250509050919050565b600060405180604001604052808381526020018473ffffffffffffffffffffffffffffffffffffffff1681525090806001815401808255809150506001900390600052602060002090600202016000909190919091506000820151816000019080519060200190610470929190610bd2565b5060208201518160010160006101000a81548173ffffffffffffffffffffffffffffffffffffffff021916908373ffffffffffffffffffffffffffffffffffffffff16021790555050505050565b6060600280548060200260200160405190810160405280929190818152602001828054801561054257602002820191906000526020600020905b8160009054906101000a900473ffffffffffffffffffffffffffffffffffffffff1673ffffffffffffffffffffffffffffffffffffffff16815260200190600101908083116104f8575b5050505050905090565b610554610c88565b6000828154811061058e577f4e487b7100000000000000000000000000000000000000000000000000000000600052603260045260246000fd5b90600052602060002090600202016040518060400160405290816000820180546105b790611232565b80601f01602080910402602001604051908101604052809291908181526020018280546105e390611232565b80156106305780601f1061060557610100808354040283529160200191610630565b820191906000526020600020905b81548152906001019060200180831161061357829003601f168201915b505050505081526020016001820160009054906101000a900473ffffffffffffffffffffffffffffffffffffffff1673ffffffffffffffffffffffffffffffffffffffff1673ffffffffffffffffffffffffffffffffffffffff16815250509050919050565b6060806000606060056003600460009054906101000a900473ffffffffffffffffffffffffffffffffffffffff1660028380546106d290611232565b80601f01602080910402602001604051908101604052809291908181526020018280546106fe90611232565b801561074b5780601f106107205761010080835404028352916020019161074b565b820191906000526020600020905b81548152906001019060200180831161072e57829003601f168201915b5050505050935082805461075e90611232565b80601f016020809104026020016040519081016040528092919081815260200182805461078a90611232565b80156107d75780601f106107ac576101008083540402835291602001916107d7565b820191906000526020600020905b8154815290600101906020018083116107ba57829003601f168201915b505050505092508080548060200260200160405190810160405280929190818152602001828054801561085f57602002820191906000526020600020905b8160009054906101000a900473ffffffffffffffffffffffffffffffffffffffff1673ffffffffffffffffffffffffffffffffffffffff1681526020019060010190808311610815575b50505050509050935093509350935090919293565b60008080549050905090565b6000600180549050905090565b6002819080600181540180825580915050600190039060005260206000200160009091909190916101000a81548173ffffffffffffffffffffffffffffffffffffffff021916908373ffffffffffffffffffffffffffffffffffffffff16021790555050565b60608060608060606005600660086009600784805461091190611232565b80601f016020809104026020016040519081016040528092919081815260200182805461093d90611232565b801561098a5780601f1061095f5761010080835404028352916020019161098a565b820191906000526020600020905b81548152906001019060200180831161096d57829003601f168201915b5050505050945083805461099d90611232565b80601f01602080910402602001604051908101604052809291908181526020018280546109c990611232565b8015610a165780601f106109eb57610100808354040283529160200191610a16565b820191906000526020600020905b8154815290600101906020018083116109f957829003601f168201915b50505050509350828054610a2990611232565b80601f0160208091040260200160405190810160405280929190818152602001828054610a5590611232565b8015610aa25780601f10610a7757610100808354040283529160200191610aa2565b820191906000526020600020905b815481529060010190602001808311610a8557829003601f168201915b50505050509250818054610ab590611232565b80601f0160208091040260200160405190810160405280929190818152602001828054610ae190611232565b8015610b2e5780601f10610b0357610100808354040283529160200191610b2e565b820191906000526020600020905b815481529060010190602001808311610b1157829003601f168201915b50505050509150808054610b4190611232565b80601f0160208091040260200160405190810160405280929190818152602001828054610b6d90611232565b8015610bba5780601f10610b8f57610100808354040283529160200191610bba565b820191906000526020600020905b815481529060010190602001808311610b9d57829003601f168201915b50505050509050945094509450945094509091929394565b828054610bde90611232565b90600052602060002090601f016020900481019282610c005760008555610c47565b82601f10610c1957805160ff1916838001178555610c47565b82800160010185558215610c47579182015b82811115610c46578251825591602001919060010190610c2b565b5b509050610c549190610cb8565b5090565b604051806040016040528060608152602001600073ffffffffffffffffffffffffffffffffffffffff1681525090565b604051806040016040528060608152602001600073ffffffffffffffffffffffffffffffffffffffff1681525090565b5b80821115610cd1576000816000905550600101610cb9565b5090565b6000610ce8610ce38461111e565b6110ed565b905082815260208101848484011115610d0057600080fd5b610d0b8482856111f0565b509392505050565b600081359050610d22816112d3565b92915050565b600082601f830112610d3957600080fd5b8135610d49848260208601610cd5565b91505092915050565b600081359050610d61816112ea565b92915050565b600060208284031215610d7957600080fd5b6000610d8784828501610d13565b91505092915050565b60008060408385031215610da357600080fd5b6000610db185828601610d13565b925050602083013567ffffffffffffffff811115610dce57600080fd5b610dda85828601610d28565b9150509250929050565b600060208284031215610df657600080fd5b6000610e0484828501610d52565b91505092915050565b6000610e198383610e25565b60208301905092915050565b610e2e816111b4565b82525050565b610e3d816111b4565b82525050565b6000610e4e8261115e565b610e588185611181565b9350610e638361114e565b8060005b83811015610e94578151610e7b8882610e0d565b9750610e8683611174565b925050600181019050610e67565b5085935050505092915050565b6000610eac82611169565b610eb68185611192565b9350610ec68185602086016111ff565b610ecf816112c2565b840191505092915050565b6000610ee582611169565b610eef81856111a3565b9350610eff8185602086016111ff565b610f08816112c2565b840191505092915050565b60006040830160008301518482036000860152610f308282610ea1565b9150506020830151610f456020860182610e25565b508091505092915050565b60006040830160008301518482036000860152610f6d8282610ea1565b9150506020830151610f826020860182610e25565b508091505092915050565b610f96816111e6565b82525050565b60006020820190508181036000830152610fb68184610e43565b905092915050565b60006080820190508181036000830152610fd88187610eda565b90508181036020830152610fec8186610eda565b9050610ffb6040830185610e34565b818103606083015261100d8184610e43565b905095945050505050565b600060a08201905081810360008301526110328188610eda565b905081810360208301526110468187610eda565b9050818103604083015261105a8186610eda565b9050818103606083015261106e8185610eda565b905081810360808301526110828184610eda565b90509695505050505050565b600060208201905081810360008301526110a88184610f13565b905092915050565b600060208201905081810360008301526110ca8184610f50565b905092915050565b60006020820190506110e76000830184610f8d565b92915050565b6000604051905081810181811067ffffffffffffffff8211171561111457611113611293565b5b8060405250919050565b600067ffffffffffffffff82111561113957611138611293565b5b601f19601f8301169050602081019050919050565b6000819050602082019050919050565b600081519050919050565b600081519050919050565b6000602082019050919050565b600082825260208201905092915050565b600082825260208201905092915050565b600082825260208201905092915050565b60006111bf826111c6565b9050919050565b600073ffffffffffffffffffffffffffffffffffffffff82169050919050565b6000819050919050565b82818337600083830152505050565b60005b8381101561121d578082015181840152602081019050611202565b8381111561122c576000848401525b50505050565b6000600282049050600182168061124a57607f821691505b6020821081141561125e5761125d611264565b5b50919050565b7f4e487b7100000000000000000000000000000000000000000000000000000000600052602260045260246000fd5b7f4e487b7100000000000000000000000000000000000000000000000000000000600052604160045260246000fd5b6000601f19601f8301169050919050565b6112dc816111b4565b81146112e757600080fd5b50565b6112f3816111e6565b81146112fe57600080fd5b5056fea2646970667358221220c3f689e6a68598ca6885fb9a995fc9db09d6adf815002ca5d678e04c7ada822764736f6c63430008000033a2646970667358221220362beaa8eeb270ef7b587d1e581b97b0dbe67479c5dd11d766a66e75fa81140464736f6c63430008000033",
  "linkReferences": {},
  "deployedLinkReferences": {}
}